:100000000C9461000C9473000C9473000C947300B6
:100010000C9473000C9473000C9473000C94730094
:100020000C9473000C9473000C9473000C94730084
:100030000C9473000C9473000C9473000C94730074
:100040000C9423020C9473000C9473000C947300B2
:100050000C9473000C9473000C9473000C94730054
:100060000C9473000C94730000000000240027001F
:100070002A0000000000250028002B0000000000DE
:1000800023002600290004040404040404040202DA
:100090000202020203030303030301020408102007
:1000A0004080010204081020010204081020000012
:1000B0000008000201000003040700000000000027
:1000C000000011241FBECFEFD8E0DEBFCDBF21E07E
:1000D000A0E0B1E001C01D92A131B207E1F70E949A
:1000E0006D020C949D030C940000833081F028F481
:1000F000813099F08230A9F008958730A9F08830D6
:10010000C9F08430B1F4809180008F7D03C080916C
:1001100080008F7780938000089584B58F7784BDA9
:10012000089584B58F7DFBCF8091B0008F77809349
:10013000B00008958091B0008F7DF9CFCF93DF9309
:10014000282F30E0F901E255FF4F8491F901E6567E
:10015000FF4FD491F901EA57FF4FC491CC23A1F08E
:1001600081110E947500EC2FF0E0EE0FFF1FE458A4
:10017000FF4FA591B491EC91ED2381E090E009F45B
:1001800080E0DF91CF91089580E090E0FACF1F9357
:10019000CF93DF93282F30E0F901E255FF4F849190
:1001A000F901E656FF4FD491F901EA57FF4FC49188
:1001B000CC23A9F0162F81110E947500EC2FF0E0DE
:1001C000EE0FFF1FEE58FF4FA591B4918FB7F89433
:1001D000EC91111108C0D095DE23DC938FBFDF9125
:1001E000CF911F910895DE2BF8CFCF93DF9390E04E
:1001F000FC01E656FF4F24918A579F4FFC018491E2
:100200008823D1F090E0880F991FFC01E859FF4F37
:10021000A591B491FC01EE58FF4FC591D491623085
:1002200071F49FB7F8943C91822F809583238C932F
:10023000E8812E2B28839FBFDF91CF9108958FB740
:10024000F894EC912E2B2C938FBFF6CF3FB7F894F8
:100250008091090190910A01A0910B01B0910C01CC
:1002600026B5A89B05C02F3F19F00196A11DB11D11
:100270003FBFBA2FA92F982F8827BC01CD01620F4D
:10028000711D811D911D42E0660F771F881F991F08
:100290004A95D1F708958F929F92AF92BF92CF92D5
:1002A000DF92EF92FF920E9426014B015C0188EBE6
:1002B000C82E8BE0D82EE12CF12C0E942601681963
:1002C00079098A099B09683E734081059105A8F365
:1002D00021E0C21AD108E108F10888EE880E83E017
:1002E000981EA11CB11CC114D104E104F10429F72A
:1002F000FF90EF90DF90CF90BF90AF909F908F9046
:1003000008952FB7F89460910501709106018091CE
:100310000701909108012FBF0895EF920F93CF939B
:10032000DF93D62FC42F622F0E94C700602F8D2F1E
:100330000E94C7006E2D8C2FDF91CF910F91EF900F
:100340000C94C7000F931F930E948101009100013C
:10035000109101012091020130910301601B710B8A
:10036000820B930B6D3271408105910580F188E01D
:100370000E949E00892B99F480910F0190911001A9
:1003800001969093100180930F010E948101609368
:10039000000170930101809302019093030189E0B1
:1003A0000E949E00892B99F480910D0190910E017D
:1003B000019690930E0180930D010E94810160933C
:1003C00000017093010180930201909303011F913A
:1003D0000F9108958F929F92AF92BF92CF92DF922A
:1003E000EF92FF924B015C010E9481016B017C0145
:1003F0000E9481016C197D098E099F096815790594
:100400008A059B0590F40E94A20120910F01309172
:10041000100180910D0190910E018217930774F4E1
:1004200087E00E949E00019719F7FF90EF90DF9000
:10043000CF90BF90AF909F908F9008952817390765
:10044000BCF684E0EECF1F920F920FB60F921124EC
:100450002F933F938F939F93AF93BF938091050109
:1004600090910601A0910701B0910801309104011B
:1004700023E0230F2D3758F50196A11DB11D2093C0
:1004800004018093050190930601A0930701B093A6
:1004900008018091090190910A01A0910B01B0918E
:1004A0000C010196A11DB11D8093090190930A01D1
:1004B000A0930B01B0930C01BF91AF919F918F91CD
:1004C0003F912F910F900FBE0F901F90189526E827
:1004D000230F0296A11DB11DD2CF789484B58260FE
:1004E00084BD84B5816084BD85B5826085BD85B5D8
:1004F000816085BD80916E00816080936E00109256
:1005000081008091810082608093810080918100D0
:100510008160809381008091800081608093800061
:100520008091B10084608093B1008091B0008160BF
:100530008093B00080917A00846080937A008091EB
:100540007A00826080937A0080917A008160809343
:100550007A0080917A00806880937A001092C100BE
:1005600061E082E00E94F50061E083E00E94F50016
:1005700061E084E00E94F50061E085E00E94F50002
:1005800061E086E00E94F50061E087E00E94F500EE
:1005900061E08EE00E94F50061E08FE00E94F500CE
:1005A00061E080E10E94F50061E081E10E94F500D8
:1005B00062E088E00E94F50062E089E00E94F500B8
:1005C00080E0C82E80E0D82E0E94A20120910F0169
:1005D0003091100180910D0190910E0182179307C7
:1005E0000CF455C0C0E3D5E72817390714F4C0E967
:1005F000DFE5E12C01E021E047E050E066E070E05B
:1006000085E090E00E948D010E944B01EE24E3946E
:1006100000E020E047E050E066E070E085E090E038
:100620000E948D01E12C21E044E050E063E070E0A5
:1006300082E090E00E948D0160E08EE00E94C700A1
:1006400061E08FE00E94C70061E080E10E94C70086
:1006500060E081E10E94C700BE01DD0F880B990BAD
:100660000E94EA0101E020E047E050E066E070E02F
:1006700085E090E00E948D010E944B0100E021E0A6
:1006800047E050E066E070E085E090E04DC0E12C8E
:1006900001E021E044E050E063E070E082E090E0BF
:1006A0000E948D010E944B01EE24E39400E020E0C3
:1006B00044E050E063E070E082E090E00E948D0151
:1006C000E12C21E047E050E066E070E085E090E05A
:1006D0000E948D0161E08EE00E94C70060E08FE023
:1006E0000E94C70060E080E10E94C70061E081E1F4
:1006F0000E94C70060E97FE580E090E00E94EA0187
:1007000001E020E044E050E063E070E082E090E04F
:100710000E948D010E944B0100E021E044E050E086
:1007200063E070E082E090E00E948D01C114D1048A
:0E07300009F44ACF0E94000047CFF894FFCF93
:00000001FF
